:020000040800F2
:10000000700E0020490100089F28000815250008EF
:100010009D280008510900089130000800000000E8
:10002000000000000000000000000000A3280008FD
:10003000370B000800000000A12800087D290008F7
:100040006301000863010008630100086301000800
:100050006301000863010008450B0008710B0008EC
:10006000770B00087D0B000863010008630100089E
:1000700063010008E90A000863010008F50A0008A6
:10008000010B000863010008630100086301000818
:1000900063010008630100086301000863010008B0
:1000A00063010008630100086301000863010008A0
:1000B000E1290008630100086301000863010008EA
:1000C0006301000863010008630100086301000880
:1000D000630100086D3000087930000885300008A1
:1000E0004B0B00086301000863010008630100086E
:1000F0006301000863010008630100086301000850
:10010000630100086301000863010008630100083F
:10011000630100086301000863010008630100082F
:10012000630100086301000863010008630100081F
:10013000DFF810D000F0FAFB004800474D3C000803
:10014000AFF30080700E0020064880470648004745
:10015000FEE7FEE7FEE7FEE7FEE7FEE7FEE7FEE777
:10016000FEE7FEE7DF29000831010008202A04DB52
:10017000203A21FA02F00021704721FA02F3D04020
:10018000C2F12002914008431946704740EA01033A
:100190009B0703D009E008C9121F08C0042AFAD23D
:1001A00003E011F8013B00F8013B521EF9D2704701
:1001B000D2B201E000F8012B491EFBD270470022A9
:1001C000F6E710B513460A4604461946FFF7F0FF56
:1001D000204610BDF0B480EA0102D40F4200B2EB19
:1001E000410F02D20246084611464A0042D0C30DD2
:1001F000DDB2C1F3C752AD1A202D35DAC1F31601B5
:1002000041F4000204B15242C5F1200602FA06F19F
:100210002A411044B3EBD05F23D0C4B1012DA0EB31
:10022000C35009DCF0BC4FF0004202EAC352DBB21B
:1002300000F5000000F0D7BA400000F1807000EB3C
:10024000C350A0F1807040EAD170490009E049082C
:1002500041EAC071A0EBC35000F50000400800EB7C
:10026000C350F0BC00F0B6BA6142012202EB41017A
:10027000001BF6E7F0BC704781F00041AAE780F070
:100280000040A7E780EA010210B502F000434000F9
:1002900022D04A001FD0010E01EB1261C0F35600BC
:1002A000C2F3560240F4000042F40002A0FB022018
:1002B00000047F39140400D0401C50EA124001D4DD
:1002C0004000491EC2B20C0604EBD010401C40088E
:1002D000802A02D003E0002010BD20F00100002998
:1002E00000DA0020184310BD2DE9FE4F804681EA58
:1002F0000300C00F0C46009021F0004123F00045A0
:10030000B8EB0200A94105D24046214690461C4662
:100310000B46024623F00040104347D0270DC7F399
:100320000A00C3F30A510290401A019040286BDA88
:10033000C3F3130040F4801B0098924620B10023C1
:10034000D2EB030A63EB0B0B01985946C0F1400254
:10035000504600F01EFA06460D4650465946019A90
:1003600000F026FA10EB08006141002487EA1152E0
:1003700084EAE7731A4340D0009A62B3019A012AD3
:100380004FEA075215DC001B61EB02014FF00042FF
:1003900002EA0752CDE90042001C41F580113246C5
:1003A0002B4600F05DFA03B0BDE8F08F40462146D1
:1003B000F9E7001B61EB0201001C41F580130018F6
:1003C0005B412018A2F5001747EB030140EAD57006
:1003D000B6196D4111E06D084FEA360645EAC07561
:1003E0004FEA0752001B61EB0201001C41F580112E
:1003F00049084FEA30000019514132462B4603B0FC
:10040000BDE8F04F00F01DBA009801224000002323
:10041000D0EB020263EBE073009821464FEAE074F0
:10042000B8EB000061EB0401E9E783F000435BE710
:1004300081F0004158E72DE9FE4F81EA030404F002
:10044000004421F0004100944FF0000B23F00043E2
:1004500050EA01045ED052EA03045BD0C3F30A54AD
:10046000C1F30A552C44A4F2F3340194A0FB0254C6
:10047000C1F3130141F48011C3F3130343F4801358
:1004800001FB024400FB034E840A970A44EA8154AC
:1004900047EA8357A4FB076802958D0A05FB078589
:1004A0004FEA932C04FB0C542705029D4FEA065893
:1004B00047EA1637B5EB08056EEB070C870E920E70
:1004C00047EA811742EA8312A7FB0201B6EB0B0150
:1004D00064EB00042B0D43EA0C335E1844EB1C5014
:1004E000DA465146E7FB0201C5F313044FEA0B332A
:1004F00043EA14534FEA0432019C43EA0603A4F191
:100500000C040294009CCDE900B400F0A9F903B0FA
:10051000BDE8F08F00200146F9E72DE9F04D81EAB2
:10052000030404F0004B21F0004514464FF0000A8C
:1005300023F0004150EA050220D054EA01021DD008
:10054000C5F30A570246C5F31303C1F31300C1F301
:100550000A5640F4801543F48013A7EB0608101BDD
:10056000D64608F2FD3873EB050002D308F1010806
:1005700001E092185B41B8F1000F03DA0020014658
:10058000BDE8F08D00204FF48011064684460EE051
:10059000171B73EB050705D3121B63EB050306431B
:1005A0004CEA010C49084FEA300092185B4150EACE
:1005B0000107EDD152EA030012D082EA040083EA77
:1005C0000501084305D0101BAB4106D201220023D0
:1005D00006E000224FF0004302E06FF001025310EA
:1005E0001AEB06004CEB085110EB0A0041EB0B0133
:1005F000BDE8F04D00F025B90EB5C10F80EAE070FE
:100600000844CA07002140F233438DE80E000A4631
:100610000B4600F025F903B000BD00F0004220F0C9
:100620000040C10DC0F3160040F400007F2901DA3C
:1006300000207047962903DCC1F19601C84001E013
:1006400096398840002AF4D04042704720F000409C
:10065000C10DC0F3160040F400007F2901DA00202C
:100660007047962903DCC1F19601C840704796395E
:100670008840704700F0004230F000400AD0C10DC1
:1006800001F56071C0F3160042EA0151C20840074B
:1006900011437047002001467047000030B5041E2A
:1006A00071F1000404DB4FF00044404264EB0101AF
:1006B000141E73F1000405DB1C464FF00043524248
:1006C00063EB0403994208BF904230BD01F0004340
:1006D00030B421F0004150EA010206D00A0DA2F523
:1006E0006072C1F31301002A02DC30BC00207047A5
:1006F000440F44EAC104C100E01830BC00EBC25012
:1007000000F068B830B50B460146002020220124D5
:1007100009E021FA02F59D4205D303FA02F5491BCF
:1007200004FA02F52844151EA2F10102F1DC30BDE5
:100730002DE9F05F0546002092469B468846064616
:10074000814640241BE02846414647462246FFF7A3
:100750000DFD53465A46C01A914110D31146184612
:10076000224600F016F82D1A67EB01084F46224684
:100770000120002100F00DF817EB00094E41201E6A
:10078000A4F10104DFDC484631462A464346BDE871
:10079000F09F202A04DB203A00FA02F10020704783
:1007A0009140C2F1200320FA03F3194390407047AF
:1007B000202A06DBCB17203A41FA02F043EAE07325
:1007C00006E041FA02F3D040C2F120029140084312
:1007D000194670470029A8BF7047401C490008BF50
:1007E00020F00100704710B4B0FA80FC00FA0CF061
:1007F00050EA010404BF10BC704749B1CCF1200499
:1008000021FA04F411FA0CF118BF01212143084325
:10081000A3EB0C01CB1D4FEA00614FEA102042BF51
:10082000002010BC704700EBC35010440029A4BF47
:1008300010BC7047401C490008BF20F0010010BCEC
:10084000704710B5141E73F1000408DA401C41F122
:10085000000192185B411A4301D120F0010010BD44
:100860002DE9F04D92469B4611B1B1FA81F202E0BA
:10087000B0FA80F220329046FFF78BFF04460F4615
:1008800040EA0A0041EA0B0153465A46084313D096
:10089000114653EA010019D0C8F140025046FFF753
:1008A00065FC05460E46504659464246FFF771FF25
:1008B000084305D0012004E020463946BDE8F08D0C
:1008C0000020054346EAE0762C4337430A98630547
:1008D000E40AA0EB08000022FD0A44EA47540A306B
:1008E00002D500200146E9E7010510196941DDE95B
:1008F000084500196941BDE8F04DA2E7C1F30A526D
:10090000C1F3130140F2FF3341F480119A4202DA3D
:1009100000200146704740F233439A42A2F233422C
:1009200002DC5242FFF722BCFFF733BF064C074DF3
:1009300006E0E06840F0010394E8070098471034AF
:10094000AC42F6D3FFF7F8FBCC440008EC440008B7
:10095000FEE7000003490322C81E4FF0FF33806901
:1009600001F08ABD0300002070B5154D0421284612
:1009700000F0A0FC134C00284FF00801284603D0DB
:1009800000F098FC78B111E000F094FC10B9E06A36
:10099000401EE0620821284600F08CFC01280ED1A0
:1009A000E06A401C0AE0E06A401CE0620821284638
:1009B00000F080FC012802D1E06A401EE06270BDB8
:1009C000001001402000002070B5154D042128467C
:1009D00000F070FC134C00284FF00801284603D0AB
:1009E00000F068FC78B111E000F064FC10B9E06A36
:1009F000401CE0620821284600F05CFC01280ED172
:100A0000E06A401E0AE0E06A401EE06208212846D3
:100A100000F050FC012802D1E06A401CE06270BD89
:100A2000001001402000002070B5154D012128461E
:100A300000F040FC134C00284FF00201284603D080
:100A400000F038FC78B111E000F034FC10B9206BF4
:100A5000401C20630221284600F02CFC01280ED106
:100A6000206B401E0AE0206B401E206302212846B6
:100A700000F020FC012802D1206B401C206370BDD7
:100A8000001001402000002070B5154D01212846BE
:100A900000F010FC134C00284FF00201284603D050
:100AA00000F008FC78B111E000F004FC10B9206BF4
:100AB000401E20630221284600F0FCFB01280ED1D5
:100AC000206B401C0AE0206B401C2063022128465A
:100AD00000F0F0FB012802D1206B401E206370BDA6
:100AE0000010014020000020014800F01BB9000068
:100AF000D4050020014800F015B900004C05002085
:100B0000014800F00FB900009005002030B590F8C2
:100B100040500124AC40C56B6C600468636043685E
:100B2000102B036803D099600068C26030BD9A60E2
:100B30000068C16030BD7047014AC2E900017047DA
:100B40007C000020012000F0ADBA10B54FF48060A9
:100B500000F0A8FA4FF4006000F0A4FA4FF48050BF
:100B600000F0A0FABDE810404FF4004000F09ABA3F
:100B7000022000F097BA042000F094BA082000F098
:100B800091BA72B6FEE70000014840687047000065
:100B900078020020014800687047000078020020B9
:100BA00001488068704700007802002010B590F876
:100BB00021100022022905D00421816380F8202021
:100BC000012010BD01680B6823F00E030B60016863
:100BD0000B6823F001030B6090F84030C46B0121D7
:100BE00001FA03F3636080F8211080F8202010469A
:100BF00010BD00002DE9F05F90F8211000240229BB
:100C000003D004218163012485E001680A6822F091
:100C10000E020A6001680A6822F001020A603F4E73
:100C20003E4FB215DFF8F4C0DFF8F090DFF8ECA02B
:100C3000DFF8E8B0DFF8E4E00168783F130115025F
:100C4000ACF1640CA9F15009AAF13C0AABF1280BF4
:100C5000AEF1140E4FF48018B14227D9B9420ED02C
:100C6000614512D049451DD0514518D0594518D07D
:100C7000714501D1424615E0294EB14201D1012210
:100C800010E0274E1436B14201D110220AE0244E62
:100C90002836B14206D0224A3C32914201D11A464E
:100CA00000E02A461E49091F0A602BE0B94213D012
:100CB000614517D0494522D051451DD059451DD019
:100CC000714501D142461AE0B14202D14FF0807223
:100CD00015E0134EB14201D1012210E0104E14363E
:100CE000B14201D110220AE00D4E2836B14206D0A1
:100CF0000B4A3C32914201D11A4600E02A4607498C
:100D000080394A60012180F82110002180F82010EC
:100D1000416B01B188472046BDE8F09F800002404A
:100D2000080402402DE9F05FC16B0A6801680B6896
:100D3000046C4FF0040808FA04F8844D844E854F83
:100D4000DFF814C2DFF81492DFF814A2DFF814B24F
:100D5000DFF814E218EA020F65D05FEA437862D543
:100D60000A68920603D40A6822F004020A60DFF8D7
:100D7000F0814FF48062016808F114081301140235
:100D8000414524D9A9420DD0B1420FD0B9421AD061
:100D9000614515D0494515D0514501D1120312E0E6
:100DA000594501D104220EE0714501D140220AE0EB
:100DB0006D4D1435A94206D06B4A2832914201D1BB
:100DC0001A4600E022466749091F0A6029E0A94245
:100DD00013D0B14215D0B94220D061451BD049454E
:100DE0001BD0514502D14FF4800217E0414502D19A
:100DF0004FF0806212E0594501D104220EE07145A6
:100E000001D140220AE0584D1435A94206D0564A75
:100E10002832914201D11A4600E022464B49083956
:100E20004A60C16A71E04FF0020808FA04F818EA53
:100E3000020F70D05FEA83786DD50A68920606D4F7
:100E40000A6822F00A020A60012180F82110DFF806
:100E500010814FF40072016808F1140813011402A4
:100E6000414524D9A9420DD0B1420FD0B9421AD080
:100E7000614515D0494515D0514501D1120312E005
:100E8000594501D102220EE0714501D120220AE02C
:100E9000354D1435A94206D0334A2832914201D14A
:100EA0001A4600E022462F49091F0A6029E0A9429C
:100EB00013D0B14215D0B94220D061451BD049456D
:100EC0001BD0514502D14FF4001217E0414502D129
:100ED0004FF0007212E0594501D102220EE0714537
:100EE00001D120220AE0204D1435A94206D01E4A25
:100EF0002832914201D11A4600E0224613490839AE
:100F00004A60002180F82010816A00291CD0BDE8C9
:100F1000F05F0847FFE70825A540154214D01A07DF
:100F200012D50A6822F00E020A6090F84020C36BC6
:100F3000012101FA02F25A60816380F82110002138
:100F400080F82010016BE0E7BDE8F09F0800024048
:100F50001C000240300002404400024058000240A1
:100F60006C000240080402401C04024030B560B12D
:100F70001A4B026814219A4209D2194B1344B3FB4D
:100F8000F1F18900016417490AE0012030BD134BDB
:100F90005B421344B3FBF1F1890001640F49083946
:100FA000C163022180F82110136843F6F0718B436E
:100FB000F0E901142143D0E902452C43214304699F
:100FC000214344692143846921431943116000216D
:100FD0004163012242770177084630BD0804024090
:100FE000F8FFFDBF0000024070B5044690F82000F5
:100FF000002501280CD0012084F8200094F82160FD
:101000000020012E06D084F820000225284670BD5D
:10101000022070BD022684F82160A0632068066863
:1010200026F0010606602046FFF770FDE06A002802
:101030002068016802D041F00E0106E021F00401B1
:1010400001602068016841F00A01016020680168C0
:1010500041F001010160D9E7042813D0082813D01A
:10106000012813D0022813D0B0F5806F12D0B0F54C
:10107000004F11D0B0F5006F10D0B0F5805F0FD1E8
:1010800002F02ABDFFF7A0BCFFF76EBCFFF7CCBC97
:10109000FFF7FABC02F086BC02F0B8BC02F0EABC72
:1010A00070470000044910B50A68024202D0086087
:1010B000FFF7D2FF10BD0000140401402DE9F84FE6
:1010C000DFF8C8910024A9F1040B23460F2709F18A
:1010D000040AABF1040ED1E00125A54006EA0502A1
:1010E000AA4276D1DFF8A8C14E68A6EB0C08664587
:1010F0002BD00DDC032E34D005DC36B3012E19D0F5
:10110000022E2FD11BE0112E16D0122E2AD119E05B
:10111000B8F5881F19D006DCB8F5803F15D0B8F5B2
:10112000801F1FD111E0B8F5001F0ED0B8F5041FC5
:1011300018D10AE0CB6815E0CB681B1D12E0CB6824
:1011400008330FE0CB680C330CE08B682BB1012B1C
:101150004FF0080303D0456104E0042302E0056179
:1011600000E00023FF2A01D8064601E000F1040652
:101170004FEA840501D9A5F12005D6F8008007FAC9
:1011800005FC28EA0C0803FA05F548EA0508C6F844
:1011900000804D68ED0070D53E4DAE6946F0010609
:1011A000AE61AD6924F0030605F0010500953A4DE6
:1011B00006EB050CDCF80850A607360F07FA06F810
:1011C00025EA0805DFF8D480404503D14FF0000838
:1011D00025E052E0DFF8C880404502D14FF0010819
:1011E0001DE0DFF8C080404502D14FF0020816E054
:1011F000DFF8B480404502D14FF003080FE0DFF87C
:10120000AC80404502D14FF0040808E0DFF8A08030
:10121000404502D14FF0050801E04FF0060808FAFA
:1012200006F848EA0508CCF808804D68D9F800604F
:10123000ED024D4601D5164300E096432E604D6801
:10124000DAF80060AD02554601D5164300E096433A
:101250002E604D68DBF80060AD035D4601D5164396
:1012600000E096432E604D68DEF80060ED037546A1
:1012700001D5164300E096432E60641C0A681646AA
:10128000E2407FF429AFBDE8F88F00000804014078
:101290000000111000100240000001400008014051
:1012A000000C0140001001400014014000180140F2
:1012B000001C01408068084000D0012070470AB13E
:1012C000016170470904FBE701488068704700002E
:1012D000B80000200248816802781144816070479C
:1012E000B8000020074810B5016841F01001016006
:1012F000032000F075F80F2000F006F800F024F845
:10130000002010BD0020024070B50D4D04464FF482
:101310007A712878B1FBF0F00A490968B1FBF0F066
:1013200000F0DCFA48B9102C07D200222146501EEA
:1013300000F036F800206C6070BD012070BD000028
:10134000B8000020A40000200C4808B5816941F0D5
:1013500001018161816901F001010091C16941F0E0
:101360008051C161C06900F080500090044841681C
:1013700021F0E06141F00071416008BD00100240C1
:1013800000000140002809DB00F01F02012191400C
:101390004009800000F1E020C0F800117047000013
:1013A000F0B40E4B1B680C46C3F30223C3F10705D0
:1013B000042D00D90425191D072901D2002300E0BE
:1013C000DB1E012606FA05F1491E214099409E4088
:1013D000761E16403143F0BC01F06CBE0CED00E00F
:1013E000064900F0070208684FF6FF03184040EA7C
:1013F0000220034A10430860704700000CED00E033
:101400000000FA052DE9F0470F46050061D0434E74
:10141000306800F00700B84209D2306820F00700B9
:1014200038433060306800F00700B84251D1286876
:101430003B4C810712D5400703D5606840F4E0605B
:1014400060602878000703D5606840F460506060F1
:101450006068A96820F0F000084360602878C00741
:1014600028D06868012810D02168022810D0890788
:1014700000292EDA616821F0030101436160FFF762
:1014800023FF804641F288390DE021688903EFE7A8
:101490008901EDE7FFF718FFA0EB0801494502D9E4
:1014A0000320BDE8F0876068696800F00C00B0EBCD
:1014B000810FEFD1306800F00700B8420BD93068D7
:1014C00020F0070038433060306800F00700B84271
:1014D00001D00120E5E72878400705D56068E96874
:1014E00020F4E060084360602878000706D5606853
:1014F000296920F4605040EAC100606000F038F8CB
:101500006168084AC1F30311515CC840064908608C
:1015100006480068FFF7F8FE0020C2E700200240FE
:1015200000100240A0440008A4000020BC000020DD
:101530000448054900684968044AC1F30221515C26
:10154000C8407047A400002000100240B0440008CA
:101550000448054900684968044AC1F3C221515C46
:10156000C8407047A400002000100240B0440008AA
:101570000E4A51680E4801F00C03042B11D0082BC1
:101580000FD10C48C1F38343C903C05C0AD551682D
:10159000084AC1F34041921E515C054A5043B0FBDA
:1015A000F1F07047044948437047000000100240C2
:1015B00000127A00BA44000800093D002DE9F84FF6
:1015C000040070D02078C04DC00749D06868C0F3CF
:1015D0008100012807D06868C0F38100022809D182
:1015E0006868C00306D52868800339D5606800287C
:1015F000E7D035E06068B0F5803F0BD010B1B0F5B2
:10160000A02F11D0286820F480302860286820F4AA
:10161000802002E0286840F480302860606890B143
:10162000FFF752FE06460AE0286840F48020286052
:10163000F0E700BFFFF748FE801B642873D82868D6
:101640008003F7D50CE0FFF73FFE064605E000BF3C
:10165000FFF73AFE801B6428F0D828688003F7D48F
:1016600020789A4E80074FF001094FF0000839D5D5
:10167000686810F00C0F07D06868C0F3810002287A
:1016800009D16868C00306D42868800714D520698A
:10169000012808D110E02069B0B1C6F80090FFF72A
:1016A00013FE074605E00AE1FFF70EFEC01B022805
:1016B000C4D828688007F7D52868616920F0F80049
:1016C00040EAC10028600DE0C6F80080FFF7FCFD8D
:1016D000074604E0FFF7F8FDC01B022823D828685E
:1016E0008007F7D4207800072CD57948A169D9B1B3
:1016F000C0F80090FFF7E8FD074604E0FFF7E4FDBF
:10170000C01B02280FD8686A8007F7D571484FF4CC
:10171000FA510068B0FBF1F0009000BF0098411E44
:101720000091FAD20EE080E0C0F80080FFF7CCFD17
:10173000074604E0FFF7C8FDC01B022875D8686A99
:101740008007F7D42078400760D5E8690027C000FB
:1017500008D4E86940F08050E861E869012700F0AA
:10176000805000905C480168C90513D40168834625
:1017700041F480710160FFF7A7FD824606E000BFDB
:10178000FFF7A2FDA0EB0A0064284ED8DBF80000AA
:10179000C005F5D5E06801280AD008B1052813D0A6
:1017A000286A20F001002862286A20F0040002E084
:1017B000286A40F001002862E06841F2883B98B155
:1017C000FFF782FD82460BE0286A40F004002862A1
:1017D000EEE700BFFFF778FDA0EB0A0159455AD8A4
:1017E000286A8007F6D50CE0FFF76EFD824605E01B
:1017F000FFF76AFDA0EB0A0159454CD8286A80071B
:10180000F6D41FB1E86920F08050E861E06988B340
:101810006968C1F38101022944D00228C6F86080BA
:1018200004D0FFF751FD044638E034E0FFF74CFDEB
:10183000074604E0FFF748FDC01B02282BD82868A4
:101840008001F7D4206AB0F5803F05D16868A168AF
:1018500020F4003008436860D4E90801084369684F
:1018600021F4741108436860C6F86090FFF72CFDFE
:10187000044606E025E000BFFFF726FD001B022816
:1018800009D828688001F7D51BE000BFFFF71CFDD1
:10189000001B022802D90320BDE8F88F28688001C8
:1018A000F4D40EE00128F7D06868226A00F4803191
:1018B000914204D1616A00F47010884201D0012085
:1018C000EAE70020E8E70000001002400000424282
:1018D00080044242A40000200070004010B5401E69
:1018E000B0F1807F01D3012010BD4FF0E024606192
:1018F0000F21601701F0DEFB0020A06107202061AE
:10190000002010BD7047704770B590F83C20012A48
:101910002CD0012480F83C40022280F83D2003684E
:101920005A689D6822F070060A6832435A60104B6C
:1019300002689A420ED00F4B9A420BD0B2F1804F00
:1019400008D00D4B9A4205D00C4B9A4202D00C4B5A
:101950009A4204D1496825F080031943916080F8C8
:101960003D40002180F83C10084670BD022070BD4B
:10197000002C0140003401400004004000080040F9
:10198000000C004010B5040003D094F83D0010B1E5
:1019900007E0012010BD002084F83C00204600F044
:1019A0001FF8022084F83D00211D206801F01EF878
:1019B000012084F8460084F83E0084F83F0084F853
:1019C000400084F8410084F8420084F8430084F821
:1019D000440084F8450084F83D00002010BD00005C
:1019E00008B501681048B1F1804F0BD00F4A914201
:1019F00007D1C16941F00201C161C06900F0020074
:101A0000009008BDC16941F00101C161C0690022B7
:101A100000F00100009011461C20FFF7C1FCBDE85A
:101A200008401C20FFF7AEBC00100240000400403C
:101A300090F83D10012901D001207047022180F863
:101A40003D100168CA6842F00102CA6000680E4990
:101A500088420ED00D4988420BD0B0F1804F08D09B
:101A60000B49884205D00B49884202D00A49884276
:101A700004D1816801F00701062903D0016841F013
:101A80000101016000207047002C0140003401403A
:101A90000004004000080040000C004070B50446FF
:101AA00090F83C000025012817D0012684F83C60FE
:101AB000022084F83D002068826822F0770222F438
:101AC0007F4282600868502838D00DDC20284FD033
:101AD00005DC90B3102811D14AE0022070BD3028F7
:101AE00046D040280AD13BE060282FD070280DD086
:101AF000B0F5805F03D0B0F5005F12D0012584F807
:101B00003D60002084F83C00284670BDCB68D1E9D8
:101B10000121206800F0BDFF2068816841F0770155
:101B200009E0CB68D1E90121206800F0B2FF20680C
:101B3000816841F480418160E1E719E0CA68496841
:101B4000206801F07BF85021206806E0CA684968E7
:101B5000206801F084F86021206800F0A4FFCEE73F
:101B6000CA684968206801F069F840212068F4E7F4
:101B7000226801461046F0E7704770B504460068D9
:101B800001694FF00005C943890715D4C168C943ED
:101B9000890711D4E91E016101202077206880693E
:101BA0008007204602D0FFF7E7FF04E000F0D0F8FE
:101BB000204600F062F9257720680169C94349078A
:101BC00017D4C168C943490713D46FF004010161F8
:101BD000022020772068806910F4407F204602D0E0
:101BE000FFF7CAFF04E000F0B3F8204600F045F923
:101BF000257720680169C943090716D4C168C9431C
:101C0000090712D46FF008010161042020772068D1
:101C1000C0698007204602D0FFF7AEFF04E000F065
:101C200097F8204600F029F9257720680169C94313
:101C3000C90617D4C168C943C90613D46FF010018F
:101C40000161082020772068C06910F4407F204699
:101C500002D0FFF791FF04E000F07AF8204600F090
:101C60000CF9257720680169C943C90708D1C16803
:101C7000C943C90704D1891E0161204600F058F903
:101C800020680169C943090609D4C168C943090626
:101C900005D46FF0800101612046FFF733FE206814
:101CA0000169C943490609D4C168C943490605D435
:101CB0006FF040010161204600F048F92068016999
:101CC000C94389060BD4C168C943890607D46FF09C
:101CD000200101612046BDE87040FFF714BE70BDD1
:101CE00010B586B000210091019102910391006826
:101CF0001349884221D11348816941F0040181616F
:101D0000816901F004010491816941F00801816158
:101D10008069022400F008000490C020CDE900048E
:101D2000694609480394FFF7C9F90320CDE9000487
:101D3000694606480394FFF7C1F906B010BD0000DC
:101D4000000400400010024000080140000C014067
:101D5000704770B5044690F83C0000260D460128F7
:101D60000FD0012084F83C006AB1042A1DD0082A53
:101D70002FD00C2A3FD00126002084F83C003046AA
:101D800070BD022070BD206800F096FE2068816959
:101D900041F0080181612068816921F004018161BD
:101DA000206881692A69114311E0206800F0B4FEBF
:101DB0002068816941F4006181612068816921F4B2
:101DC00080618161206881692A6941EA022181611B
:101DD000D2E7206800F0D6FE2068C16941F0080112
:101DE000C1612068C16921F00401C1612068C16935
:101DF0002A69114311E0206800F0F8FE2068C169EB
:101E000041F40061C1612068C16921F48061C16150
:101E10002068C1692A6941EA0221C161ACE710B5B5
:101E2000040003D094F83D0010B107E0012010BD7C
:101E3000002084F83C00204600F01EF8022084F8C0
:101E40003D00211D206800F0D1FD012084F84600EE
:101E500084F83E0084F83F0084F8400084F8410094
:101E600084F8420084F8430084F8440084F8450074
:101E700084F83D00002010BD7047704710B504463F
:101E8000022249B104290ED0082913D094F8410048
:101E9000012816D0012010BD94F83E000128F9D188
:101EA00084F83E200FE094F83F000128F2D184F836
:101EB0003F2008E094F840000128EBD184F840204E
:101EC00001E084F841200122206800F0D5FD13498B
:101ED0002068134A884201D0904203D1436C43F4F6
:101EE00000434364206888420DD090420BD0B0F18B
:101EF000804F08D00B49884205D00B49884202D058
:101F00000A49884204D1816801F00701062903D0FB
:101F1000016841F001010160002010BD002C01406A
:101F2000003401400004004000080040000C004064
:101F30000449884204D104490120086002F09CB899
:101F400070470000E4030020A8000020704770479D
:101F500070470000F8B5016804460868CA684B6914
:101F600010F00F0F4FF0000559D003F0010602F4F6
:101F70009077374365D0C10705D0D10503D5616C93
:101F800041F001016164410705D5D90703D0616CB7
:101F900041F002016164810705D5D90703D0616C66
:101FA00041F004016164010707D502F020013143CB
:101FB00003D0616C41F008016164616C00293AD082
:101FC000800604D5900602D5204600F00EFF20685A
:101FD0004069616CC0F38010090700D460B32046EB
:101FE00000F0CEFE20684069400621D520681430FC
:101FF00050E8001F21F0400140E80012002AF5D10E
:10200000E06BA8B16D494163E06BFEF7F3FD00287A
:1020100011D0E06B416B01B0BDE8F040084783068A
:102020000FD593060DD52046BDE8F84000F0DDBE83
:102030002046FFF78DFFF8BD2046FFF789FF656456
:10204000F8BD266B2023012E7CD1C6067AD5D60694
:1020500078D508684868009048694FF00206400645
:1020600040D5E16B086840680004000CE8D0A28D00
:102070008242E5D9E085886920282DD020680C307F
:1020800050E8001F21F4807140E80012002AF5D1C9
:102090002068143050E8001F21F0010140E80012D0
:1020A000002AF5D12068143050E8001F21F04001CB
:1020B00040E80012002AF5D184F8423025632068F8
:1020C0000C3050E8001F21F0100140E80012002AF7
:1020D000F5D1E06BFEF76AFD6663A08DE18D401AD5
:1020E00081B22AE0A08DE18D401A81B2E08D0028F6
:1020F000A6D00029A4D022680C3252E8000F20F4A8
:10210000907042E80007002FF5D12068143050E8A5
:10211000002F22F0010240E80027002FF5D184F8BB
:102120004230256320680C3050E8002F22F0100266
:1021300040E80023002BF5D166632046FFF707FF38
:10214000F8BDFFE705062BD5150629D594F8410003
:102150002128F5D1A068B0F5805F01D12069B0B128
:10216000206A411C2162216800784860E08C401E92
:102170000004000CE084E3D12068C16821F08001F4
:10218000C1602068C16841F04001C160D8E7206AA1
:102190000088C0F308004860206A801C2062E5E7E0
:1021A0004006CDD55006CBD5CA68204622F0400265
:1021B000CA6084F8413000F0ACF9C1E7832C000814
:1021C00070B5040004D094F84100002510B106E079
:1021D000012070BD84F84050204600F023F82420F0
:1021E00084F841002068C16821F40051C160204694
:1021F00000F05CFE2068016921F4904101612068D3
:10220000416921F02A0141612068C16841F400510F
:10221000C1606564202084F8410084F84200656351
:10222000002070BD2DE9F04186B000240094019497
:10223000029403940546DFF88CC1036862480221CA
:102240000322624F80264FF48068634537D183694B
:1022500043F480438361836903F480430493836977
:1022600043F0040383618069039200F0040004904A
:102270000802CDE9000169463846FEF71FFFCDE9A7
:102280000084694638460294FEF718FF514F5048C3
:10229000C7E90004C7E902463C617C61BC6138467D
:1022A000FC61FEF763FE08B1FEF76BFCEF630022F2
:1022B000114625207D62FFF773F825203EE0DFF808
:1022C00018C163453FD1C36943F40033C361C36997
:1022D00003F400330493836943F00403836180694A
:1022E000039200F0040004900420CDE90001694647
:1022F0003846FEF7E3FE0820CDE90004694638467B
:102300000294FEF7DBFE334F314844371430C7E9FF
:102310000004C7E9024620203C61C7E90540384671
:10232000FC61FEF723FE08B1FEF72BFCEF630022F1
:10233000114626207D62FFF733F82620FFF722F8AA
:1023400006B0BDE8F081254FBB42F9D1C36943F423
:102350008023C361C36903F480230493836943F03A
:10236000080383618069CDE9008100F00800CDE9B0
:1023700003201B4F69463846FEF7A0FEF814CDE94E
:102380000004694638460294FEF798FE114F104843
:1023900088372838C7E90004C7E902463C617C61F8
:1023A000BC613846FC61FEF7E1FD08B1FEF7E9FBD0
:1023B000EF630022114627207D62FEF7F1FF272000
:1023C000BCE7000000380140001002400008014056
:1023D000580002404C0500200044004000480040E6
:1023E000000C014090F84230202B01D002207047B1
:1023F00021B11AB10023036300F0B4BD012070477E
:1024000010B50C4CA168884212D10B4821684B22B0
:10241000084409494B39FDF7B9FE4FF496724B2039
:10242000216801F085FD2060BDE8104001F07CBF0F
:1024300010BD0000AC000020AE06002010B50C4C12
:10244000A168884212D10B4821684B2208440949EF
:102450009639FDF79BFE4FF496724B20216801F0F0
:1024600067FD2060BDE8104001F05EBF10BD0000B8
:10247000AC000020AE0600202DE9F843044690F899
:1024800041001F4616460D46202802D00220BDE816
:10249000F8837DB176B100206064212084F841008A
:1024A000FEF712FFA6848046E684A068B0F5805F40
:1024B00002D003E00120EAE7206910B12E46002592
:1024C0000EE000260CE08021204600F093FDA0B92C
:1024D000AEB116F8010B21684860E08C401EE08424
:1024E000E08C43464FF0000200970028EBD14FF0FC
:1024F0004001204600F07EFD30B10320C7E735F8EB
:10250000020BC0F30800E6E7202084F84100002019
:10251000BDE77047FEE7000003494FF0FF33084670
:1025200003228069FFF7A8BF00000020114808B50A
:10253000416941F0010141614069002200F0010060
:10254000009011460D20FEF72BFF0D20FEF71AFF1D
:10255000002211460F20FEF723FF0F20FEF712FF87
:10256000002211461020FEF71BFFBDE80840102096
:10257000FEF708BF001002402DE9F04F85B000249F
:102580004A480094019402940394816941F0200127
:102590008161816901F020010491816941F010019C
:1025A0008161816901F010010491816941F00401A8
:1025B0008161816901F004010491816941F00801A0
:1025C00081618069002200F00800049030213848C1
:1025D000FEF775FEDFF8DCA0002230215046FEF742
:1025E0006EFEDFF8D4B04FF47049002249465846D9
:1025F000FEF765FE314F41F60F40CDE90007694611
:1026000002945046FEF75AFD4FF03008022601258D
:10261000CDF800800396CDE9015469462448FEF7C1
:102620004DFDCDF800800396CDE901546946504632
:10263000FEF744FDCDF800900396CDE901546946BC
:102640005846FEF73BFDE803CDE9000769460294D2
:102650001748FEF733FD002211460620FEF7A0FEC4
:102660000620FEF78FFE002211460720FEF798FE97
:102670000720FEF787FE002211460820FEF790FE95
:102680000820FEF77FFE002211460920FEF788FE93
:102690000920FEF777FE002211462820FEF780FE73
:1026A0002820FEF76FFE05B0BDE8F08F0010024055
:1026B0000008014000100140000C014000003110F2
:1026C00010B586B000241748009401940294039436
:1026D00004944FF08041059401604721C0E9011442
:1026E00042F20F71C0E9031480218161FFF74AF9BA
:1026F00008B1FEF746FA4FF4805000906946094849
:10270000FFF7CCF908B1FEF73CFA049404A9054898
:102710000594FFF7F9F8002801D0FEF732FA06B069
:1027200010BD0000E403002010B58EB00024079413
:10273000089409940A940B941C2168460C94FDF7A4
:102740003EFD2B48294901604721C0E9011440F2B0
:10275000F311C0E9031480218161FFF713F908B177
:10276000FEF70FFA4FF48050079007A92048FFF7B3
:1027700095F908B1FEF705FA1D48FFF750FB08B1BF
:10278000FEF7FFF90B940BA919480C94FFF7BCF85E
:1027900008B1FEF7F6F96020CDE9000402940022AA
:1027A000694613480494FFF7D4FA08B1FEF7E9F933
:1027B000042269460E48FFF7CCFA08B1FEF7E1F9AA
:1027C000082269460A48FFF7C4FA08B1FEF7D9F9AA
:1027D0000C2269460648FFF7BCFA08B1FEF7D1F9AA
:1027E0000348FFF77DFA0EB010BD00000004004062
:1027F0002C0400200C4810B50A4901604FF4E13167
:102800004160002181600C22C160C0E90412816135
:10281000C161FFF7D5FC002803D0BDE81040FEF7EA
:10282000B0B910BD00380140740400200C4810B548
:102830000A4901604FF4E1314160002181600C22BE
:10284000C160C0E904128161C161FFF7B9FC0028D1
:1028500003D0BDE81040FEF794B910BD004400401D
:10286000BC0400200C4810B50A4901604FF4E13166
:102870004160002181600C22C160C0E904128161C5
:10288000C161FFF79DFC002803D0BDE81040FEF7B2
:1028900078B910BD0048004004050020FEE7FEE7BF
:1028A000704770470B4930B48C694FF0FF33B0F577
:1028B000E13F08D0B0F5165F09D103220931204667
:1028C00030BCFFF7D9BD03490322891DF7E730BCAF
:1028D000704700000000002004494FF0FF33A1F1D1
:1028E0000C0003228069FFF7C7BD00000C00002028
:1028F00004494FF0FF33A1F1120003228069FFF772
:10290000BBBD0000120000202DE9FC410846FDF788
:1029100084FE05462046FDF780FE06461648C0E9BF
:102920001756684601F068F90098FDF776FE124CDC
:102930000746743420600198FDF76FFE0146606021
:10294000BD4202DD01F08AFB0BE002DA01F070F912
:1029500007E08E4202DD01F0F1F802E001DA01F059
:102960000FF82068854202D16068864201D0FFF7E7
:10297000CBFFBDE8FC81000020000020FEF7AABCD0
:1029800030B58FB028216846FDF719FC14210AA83C
:10299000FDF715FC01210804CDE900100024029484
:1029A00002250491CDE907504FF4E01009906846E4
:1029B000FEF704FE08B172B6FEE70F20CDE90A0566
:1029C0004FF48060CDE90C4002210AA80E94FEF776
:1029D00019FD002801D072B6FEE70FB030BD704778
:1029E0000148FFF7CAB80000E4030020F0B5026810
:1029F0001C4B1D4D1D4E1E4F1E4C4FF0804C9842DF
:102A000009D0A04207D0604505D0A84203D0B0420B
:102A100001D0B84204D122F0700E4A6842EA0E0298
:102A2000984209D0A04207D0604505D0A84203D003
:102A3000B04201D0B84203D122F44075CA682A439B
:102A40004D6922F080022A4302608A68C2620A68E5
:102A50008262984201D0A04201D10969016301213B
:102A60004161F0BD002C014000040040000800401E
:102A7000000C00400034014010B501F01F0301219B
:102A8000046A99408C430462016A9A4011430162CE
:102A900010BD10B5846842EA032224F47F440A433F
:102AA0002243826010BD826822F070020A4342F025
:102AB0000701816070470000F0B5036A026A22F0E6
:102AC0000102026242688469124E24F073050C68A8
:102AD0002C4323F002058B682B430D4DA84201D0F7
:102AE000B04205D123F00807CB683B4323F0040331
:102AF000A84201D0B04205D14D6922F4407215437D
:102B00008A692A4342608461496841630362F0BD77
:102B1000002C014000340140F0B5026A036A23F042
:102B200010030362436884690D6824F4E64444EAB0
:102B300005248D6822F0200242EA05120F4D104E46
:102B4000A84201D0B04206D1CF6822F0800242EA0A
:102B5000071222F04002A84201D0B04207D14D69CD
:102B600023F4406343EA85038D6943EA85034360A8
:102B70008461496881630262F0BD0000002C01405D
:102B800000340140F0B5026A036A23F480730362E3
:102B90004368C46922F4007224F073050C68124E75
:102BA0002C438D6842EA05220E4DA84201D0B04266
:102BB00006D1CF6822F4006242EA072222F4806242
:102BC000A84201D0B04207D14D6923F4405343EAF3
:102BD00005138D6943EA05134360C4614968C16305
:102BE0000262F0BD002C01400034014030B5046A9F
:102BF000026A22F4805202624268C3690D6823F4BB
:102C0000E64343EA05238D6824F4005444EA05347E
:102C1000084DA84202D0084DA84204D14D6922F4C3
:102C2000804242EA85124260C361496801640462DD
:102C300030BD0000002C01400034014010B5036A93
:102C4000046A24F001040462846924F0F00444EA74
:102C5000021423F00A020A438461026210BD10B517
:102C6000036A046A24F010040462846923F0A00358
:102C700024F4704444EA023243EA011182610162A1
:102C800010BD10B5406A0021C185C184FFF760F90D
:102C900010BD70B5446A2068406994F84110C0F3D3
:102CA000C0100025212904D118B1E584204600F088
:102CB0008EF82068406994F84210C0F380102229F1
:102CC00004D118B1E585204600F05AF8606C40F058
:102CD000100060642046FFF73BF970BD10B5014657
:102CE000406A096809684FF0000289062ED4C2853F
:102CF00001680C3151E8003F23F4807341E800344F
:102D0000002CF5D10168143151E8003F23F0010394
:102D100041E80034002CF5D10168143151E8003F3E
:102D200023F0400341E80034002CF5D1202180F845
:102D30004210016B012909D101680C3151E8003FB3
:102D400023F0100341E80034002CF5D14263016BFD
:102D5000012902D0FFF754FB10BD818DFFF7F7F872
:102D600010BD10B5406A01214163016B012902D0F9
:102D7000FFF764FB10BD818D4908FFF7E8F810BD2F
:102D800001680C3151E8002F22F4907241E80023D1
:102D9000002BF5D10168143151E8002F22F0010217
:102DA00041E80023002BF5D1016B012909D101680D
:102DB0000C3151E8002F22F0100241E80023002BD3
:102DC000F5D1202180F8421000210163704701688D
:102DD0000C3151E8002F22F0C00241E80023002B03
:102DE000F5D1202180F84110704708B590F84210C5
:102DF000222901D0022008BD82684FF480539A42F4
:102E000001D1016921B1816A9A421BD04AB10AE01D
:102E10000268816A5268C2F308020A80816A891CCA
:102E200008E0026972B10268526802F07F020A701B
:102E3000816A491C8162C18D491E0904090CC18542
:102E400003D01BE002685268F1E70168CA6822F00B
:102E50002002CA600168CA6822F48072CA600168F0
:102E60004A6922F001024A61202180F842100021C3
:102E70004163026B012A03D0FFF7C2FA002008BDAC
:102E8000016301680C3151E8002F22F0100241E883
:102E90000023002BF5D101680A68D20602D50A6822
:102EA00049680091818DFFF752F8E7E770B5044655
:102EB00000680169E26821F4405111430161216910
:102EC000A0680843616908432168CA6841F20C633D
:102ED0009A430243CA6020684169A26921F44071A3
:102EE000114341611E492068884202D1FEF730FB40
:102EF00001E0FEF71DFB00EBC00101EB0012606872
:102F000064218000B2FBF0F3B3FBF1F36FF018061D
:102F10007343B2FBF0F5B2FBF0F605EB8305322309
:102F200003EB0515B5FBF1F5B6FBF1F605F0F00581
:102F300005EB0615B2FBF0F6B2FBF0F0B0FBF1F0DA
:102F40006FF01802504306EB800003EB0010B0FB5B
:102F5000F1F0216800F00F002844886070BD000087
:102F60000038014038B5816204468285002013464E
:102F70006064222284F84220E56B1B4AAA62E56B5A
:102F80001A4AEA62E56B1A4A2A63E26B50630A4600
:102F90002168E06B091DFEF727F82068016840688A
:102FA0000090206948B120680C3050E8001F41F4BF
:102FB000807140E80012002AF5D12068143050E8F2
:102FC000001F41F0010140E80012002AF5D12068FD
:102FD000143050E8001F41F0400140E80012002A80
:102FE000F5D1002038BD0000DD2C0008632D00085D
:102FF000932C00082DE9F041984617460E460446EA
:10300000069D27E0681C25D02DB1FEF75DF9A0EBE9
:103010000800A8421ED920680C3050E8001F21F497
:10302000D07140E80012002AF5D12068143050E831
:10303000001F21F0010140E80012002AF5D12020F4
:1030400084F8410084F84200002084F84000032006
:10305000BDE8F0812068006836EA000004D0002056
:10306000B842CFD00020F3E70120F9E70148FEF78E
:1030700071BF0000740400200148FEF76BBF000020
:10308000BC0400200148FEF765BF000004050020D5
:10309000FEE700000FB4054B10B503A9044A0298DF
:1030A00000F0EAF810BC5DF814FB0000613B00087A
:1030B000C40000200907090E002804DB00F1E0200D
:1030C00080F80014704700F00F0000F1E02080F855
:1030D000141D704702E008C8121F08C1002AFAD167
:1030E00070477047002001E001C1121F002AFBD188
:1030F000704700002DE9FF5F82B00021DDE9043058
:10310000020DDDF840B0034318D044F61050A2F28F
:10311000FF3242431514119801281FD0A5EB0B0074
:10312000401C5FEA000A4FF000064E4FDFF838916E
:10313000B046504615D5CAF1000413E01198012499
:103140004AA3012801D16FEA0B010298119AC0E944
:103150000031C0E9024206B0BDE8F09FCBF10000AB
:10316000DFE704460021404A491842EB0450CDE90C
:10317000001012E0E00707D032463B464046494681
:10318000FDF759F98046894632463B4610461946B6
:10319000FDF751F906460F466410002CEAD1DDE92F
:1031A0000401DDE90023BAF1000F06DAFDF743F967
:1031B00042464B46FDF73FF905E0FDF7AEF94246C2
:1031C0004B46FDF7AAF904460E460022284BFDF7B0
:1031D00065FA03D84FF0FF30014607E00022254B87
:1031E00020463146FDF780F8FDF788FB102409E002
:1031F000002C0ADB0A220023FDF79AFA039B3032E7
:103200001A55641E50EA0102F2D1641C039AC4F1FB
:1032100011031444119A012A03D0012208430DD14D
:103220000AE0084304D000204FF0110B119072E720
:10323000A3EB0B056D1E0DE05B4504DD4FF00002B6
:1032400005F1010504E003DA4FF00002A5F10105E4
:10325000002AECD002981199C0E90231C0E900457A
:1032600079E70000000014400000F03F300000004B
:103270000000F0430000E03F2DE9FF4F95B09A4673
:10328000884606460025EEE1252877D1002427460A
:10329000F94A0121039400E0044316F8013F203B62
:1032A00001FA03F01042F7D130782A2811D06FF0DC
:1032B0002F033078A0F13002092A16D8039A44F07F
:1032C000020402EB820203EB42021044761C0390DC
:1032D000EFE758F8042B0392002A03DA504244F433
:1032E0000054039044F00204761C30782E2816D146
:1032F00016F8010F44F004042A280DD06FF02F02B5
:103300003078A0F13003092B09D807EB870302EBD3
:103310004303C718761CF3E758F8047B761C307813
:103320006C280FD006DC4C2817D068280DD06A28EE
:1033300014D104E0742810D07A280FD10DE044F4A1
:1033400000140AE044F4801401E044F4401472785C
:10335000824202D104F58014761C761C30786628EF
:103360000BD013DC582877D009DC002875D045280D
:10337000F6D04628F4D047281AD193E118E0632804
:1033800035D0642879D0652812D18BE1702873D0AC
:1033900008DC6728F1D069286FD06E280DD06F281F
:1033A00006D1ACE073282CD0752874D0782853D07F
:1033B0005246179990476D1C54E1C4F302500228FD
:1033C00009D003280DD0D8F8001004280DD00D60C6
:1033D00008F1040846E1D8F80010EA17C1E90052E4
:1033E000F6E7D8F800100D80F2E70D70F0E718F856
:1033F000041B8DF8001000208DF80100EB46012021
:1034000003E058F804BB4FF0FF3061074FF00001B4
:1034100002D40DE009F101018946B9420FDA814574
:10342000F8DB1BF809100029F4D108E009F10101CB
:1034300089468142FADB1BF809100029F6D103986E
:103440005346A0EB090721463846179A00F080FA48
:10345000284400EB090507E044E008E10DE01BF813
:10346000010B524617999047B9F10109F7D253461B
:1034700021463846179AF2E039E00A21C4F3025295
:103480004FF0000B0091022A06D058F8040BC11728
:10349000032A09D00AE023E008F1070020F0070220
:1034A000F2E80201904605E000B2C117042A01D1FA
:1034B00040B2C117002906DA0A460021404261EBFA
:1034C00002012D2202E0220504D52B228DF80420D2
:1034D000012203E0E20701D02022F7E7914657E0FE
:1034E0000A2100E010214FF0000B00910BE01021A9
:1034F0004FF0000B44F004040827009103E008207B
:103500004FF0000B0090C4F30252022A05D058F885
:10351000040B0021032A08D008E008F1070020F07E
:103520000702F2E80201904603E080B2042A00D1CB
:10353000C0B24FF0000922072AD53278702A07D08E
:10354000DDF800C08CF0100C5CEA0B0C05D00EE02E
:1035500040228DF80420012208E050EA010306D041
:1035600030238DF804308DF8052002229146009B0F
:1035700083F0080353EA0B030AD150EA010201D198
:10358000620705D530228DF804204FF001097F1E17
:103590003278582A04D039A20C920CAA02920BE07D
:1035A0003BA2F9E75B46009AFDF7C2F80C9B9B5CD7
:1035B000029A521E0292137050EA0102F2D102984E
:1035C00004A9081A00F1200B600702D524F4803406
:1035D00000E001275F4502DDA7EB0B0000E00020C3
:1035E00000EB0B01009003984944401A0390E0035C
:1035F00006D453462146179A039800F0A9F90544CA
:10360000002706E001A85246C05D179990476D1C3F
:103610007F1C4F45F6DBE0030CD553462146179A35
:10362000039800F095F9054404E0302052461799BC
:1036300090476D1C0099481E00900029F5DC08E0B9
:103640000298029952460078491C029117999047B6
:103650006D1CBBF10001ABF1010BF1DC5BE100F093
:1036600065F90544761C307800287FF40DAE19B05A
:103670002846BDE8F08F00000928010030313233C0
:10368000343536373839616263646566000000009E
:103690003031323334353637383941424344454688
:1036A00000000000600700D4062708F1070020F0A2
:1036B0000700F0E80223804603F0004C5FEA0C00AC
:1036C00001D097A009E0200501D596A005E0E0070C
:1036D00001D095A001E0AFF24C001390307823F0B8
:1036E000004365280CD006DC452809D046281DD0AB
:1036F00047287FD13BE0662818D067287AD136E08A
:103700000021112F01DB112000E0781CCDE9000120
:1037100004A90CA8FFF7EEFCDDE90D010C9A4FF0AF
:10372000000B07F10109109200914EE04FF00040AC
:103730000097CDE9011004A90CA8FFF7DBFCDDE937
:103740000D020C9B0F994FF0000B914610930092C5
:1037500011B9791C00EB0109B7EB090003D4C0F1E2
:10376000FF3B07F10109A9EB0700019042E0012F9F
:1037700000DA01270021112F01DD112000E0384679
:10378000CDE9000104A90CA8FFF7B4FCDDE90D01A7
:103790000C9A00914FF0000BB946109221070FD4FC
:1037A000009A4A4503DA914601E0A9F10109B9F10D
:1037B000010F05DD109AA9F10101515C3029F4D007
:1037C000B84202DA10F1040F03DA0121CDE9011049
:1037D00010E0002803DC8344A9EB000102E0411C57
:1037E000494500DD8946A0EB0B00401C01904FF0DD
:1037F00000400290200705D40198484502DB4FF0B5
:10380000FF30019000208DF84B0002980DF14B071E
:10381000B0F1004F25D002200C902B200D90029883
:1038200000280CDA404202902D200D9007E00A217A
:103830000298FCF767FF3031029007F8011D0C99E0
:10384000481E0C900029F2DC02980028EFD1791E66
:103850000D980870307800F0200040F0450007F81F
:10386000020D11A8C01BC01D02901398007800B172
:10387000012000EB0901019801EBE071029801447D
:103880000398401A401E0390E00306D45346214695
:10389000179A039800F05CF805441398007818B163
:1038A0005246179990476D1CE00323D55346214695
:1038B000179A039800F04CF805441BE0BBF1000F89
:1038C00007DB0098584504DD1098179910F80B0095
:1038D00001E0179930205246904701980BF1010BF7
:1038E000401E05F10105019004D12E205246179982
:1038F00090476D1CB9F10001A9F10109DEDC05E07A
:1039000017F8010B5246179990476D1C0299481EF3
:1039100002900029F4DC53462146179A03989EE64C
:103920002D0000002B000000200000002DE9F041D8
:10393000044600251E461746880404D405E039468F
:103940002020B0476D1C641EF9D52846BDE8F081E3
:103950002DE9F041044600251E469046C80301D5D6
:10396000302700E02027880404D505E0414638468A
:10397000B0476D1C641EF9D52846BDE8F0810000F3
:103980000749074A0548486118324FF07F51516195
:103990001832506102F11800416170470000C0BF49
:1039A0008402002070B54FF400411548FDF782FCF9
:1039B000144E4FF48065144C00282946304603D03D
:1039C000FDF778FC78B111E0FDF774FC10B9606B7D
:1039D000401C606329463046FDF76CFC01280ED17F
:1039E000606B401E0AE0606B401E606329463046F3
:1039F000FDF760FC012802D1606B401C606370BD64
:103A000000080140001001402000002070B54FF474
:103A100000411548FDF74EFC144E4FF48065144CE0
:103A200000282946304603D0FDF744FC78B111E068
:103A3000FDF740FC10B9606B401E606329463046BC
:103A4000FDF738FC01280ED1606B401C0AE0606B6A
:103A5000401C606329463046FDF72CFC012802D14A
:103A6000606B401E606370BD0008014000100140A3
:103A70002000002070B5164D4FF400612846FDF778
:103A800019FCAE14134C00283146284603D0FDF72C
:103A900011FC78B111E0FDF70DFC10B9A06B401CD2
:103AA000A06331462846FDF705FC01280ED1A06B26
:103AB000401E0AE0A06B401EA06331462846FDF779
:103AC000F9FB012802D1A06B401CA06370BD00006F
:103AD000001001402000002070B5164D4FF4006129
:103AE0002846FDF7E7FBAE14134C00283146284664
:103AF00003D0FDF7DFFB78B111E0FDF7DBFB10B978
:103B0000A06B401EA06331462846FDF7D3FB012879
:103B10000ED1A06B401C0AE0A06B401CA063314694
:103B20002846FDF7C7FB012802D1A06B401EA06309
:103B300070BD000000100140200000200649064A28
:103B40004FF07F504861183204495161183250617A
:103B500002F1180041617047840200200000C0BFDC
:103B60000E49096801290AD002290FD0032914D16E
:103B70000B490A685206FCD50949091D0CE00949A0
:103B80000A685206FCD50749091D05E006490A687E
:103B90005206FCD50449091D08607047A8000020A2
:103BA000004800400038014000440040014890F8BF
:103BB00057007047DA07002001480078704700007E
:103BC000DA0700200148D0F801007047DA0700202A
:103BD000014890F858007047DA0700201CB50446E9
:103BE000684600F009F80098FCF717FD206001987E
:103BF000FCF713FD60601CBD0449D1F8471001605B
:103C00000249D1F84B10416070470000DA070020EC
:103C1000014890F85C007047DA0700200249C8228A
:103C200088610249FEF7DEBB00000020D0000020C2
:103C30000549044848611831486118314861183114
:103C4000486170470000C0BF840200201FB5FDF727
:103C500049FBFEF795FEFEF78FFCFEF767FCFEF7CB
:103C600063FDFEF7C7FDFEF7E1FDFEF729FDFEF758
:103C7000F9FD012276497748FEF7B4FB7648FFF755
:103C8000CDFF764800F0ECFB7548FDF7D1FE002132
:103C90007448FEF7F3F804217248FEF7EFF80821A4
:103CA0007048FEF7EBF80C216E48FEF7E7F86E4C13
:103CB000012211032046FDF702FB00226114204679
:103CC000FDF7FDFA012291032046FDF7F8FA0022E4
:103CD0004FF400412046FDF7F2FA644C0122102116
:103CE0002046FDF7ECFA002220212046FDF7E7FAF6
:103CF0005F4C012210212046FDF7E1FA002220212D
:103D00002046FDF7DCFA57494FF0000840460A68A4
:103D1000C2F834800A68C2F838800A68C2F83C8069
:103D20000968C1F840805449554B524CC1E90183A0
:103D3000524AC1F80080C1E903241831C1E90103E6
:103D40000860C1E903241831C1E901030860C1E931
:103D500003241831C1E901030860C1E903244FF4C9
:103D6000E130FEF79FFDFEF7B7FDFEF7D5FBFCF750
:103D7000F1FDFEF7BDFD364C543CA06CC00000F0D8
:103D8000A1F82062E06CC00000F09CF86062206D39
:103D9000C00000F097F8A24604F1640BA062394914
:103DA00001200860FCF7F6FE8146FCF7EDFE0546B3
:103DB000FCF7F6FECAF83C00FCF75CFC04460F4634
:103DC0002846FCF757FC05460E464846FCF752FCD1
:103DD00003970095CDE9016402460B462AA0FFF740
:103DE00059F9FFF7F5FE0646FFF7ECFEC4B2FFF700
:103DF000DDFEC5B2FFF70CFF5CB1214629A0FFF73D
:103E000049F931462AA0FFF745F929462AA0FFF7CC
:103E100041F945464FEA0B04FFF7CEFE90B9256005
:103E20006560F9E76846FFF7E7FE0098FCF7F5FBE9
:103E3000054620600198FCF7F0FB014660602846CB
:103E400000F07EF8FFF7B8FE0128A8D1EAE70000ED
:103E5000740000207404002004050020BC0400202D
:103E6000E40300202C040020000C01400008014065
:103E70000010014000008C42840200200000E0405D
:103E800000002042A8000020524F573A2025662CFF
:103E90002050495443483A25662C205941573A2529
:103EA000660D0A0074696D653A25640D0A0000000C
:103EB00068703A25640D0A0041676C6974793A2587
:103EC000640D0A00F0B50B30154D20F007010024F9
:103ED000144A0FE003688B420BD38B4205D95E1A5C
:103EE00043184768C3E9006700E04368136002C0F5
:103EF00004E0021D10680028ECD12046002802D101
:103F0000286808B10020F0BD064A07481060074A3B
:103F1000121A22F00702C0E9002401202860D7E726
:103F2000CC000020C800002074080020700A002087
:103F30000844904200DB801A002800DA10447047E1
:103F40002DE9F041074688462048FFF747FE1F4C01
:103F500032E0874208DAA0F101006168FCF7ECFD6D
:103F6000D4E900566D1E1BE0616807DD00F1010019
:103F7000FCF7E2FDD4E900566D1C11E0884507DA34
:103F8000A1F10101FCF7D8FDD4E90056761E07E047
:103F900006DD01F10101FCF7CFFDD4E90056761CE6
:103FA000FEF7B2FC02E00948FFF718FE2068A842BD
:103FB000F9D16068B042F6D120688742C9D1626801
:103FC0009045C6D10120BDE8F0810000940000209A
:103FD0002DE9F04104460D4640694FF08141884289
:103FE00002DC1949884200D9616129462068FCF742
:103FF000F1F816492060884202DC1549884201D94F
:104000000020206028466168FCF736F92169FCF73A
:1040100039F906462168E068FCF734F90746294675
:10402000A068FCF72FF93946FCF7D4F83146FCF7C5
:10403000D1F808496560884202DA0749884200D30E
:104040000846BDE8F0810000000080C00000FA438F
:104050000000FAC30000C8430000C8C305494FF080
:104060007F50486118314861183148611831486102
:1040700070470000840200202DE9F04F9B4D85B071
:10408000E86AFCF7B9FA9A4A9A4BFCF746FAFCF749
:104090001DFB8046286BFCF7AFFA974A974BFCF75D
:1040A0003CFAFCF713FB0746686BFCF7A5FA944A49
:1040B000944BFCF732FAFCF709FB0646A86BFCF7B9
:1040C0009BFA914A914BFCF728FAFCF7FFFA00247F
:1040D000EC622C636C63DFF838A2AC638146554612
:1040E0004146DAF81400FCF7C7F80AF1180B0490FF
:1040F0003946DBF81400FCF7BFF803900AF13000F2
:1041000031464069FCF7B8F80AF14806804649464E
:104110007069FCF7B1F8074650460499FFF758FF5D
:10412000009058460399FFF753FF03904146A6F1CC
:104130001800FFF74DFF029039463046FFF748FF61
:10414000019068694FF40009DFF8C881724D484555
:104150000FDB0022102147464046FDF7B0F8012250
:1041600020213846FDF7ABF80098FCF76FFA296874
:104170004863DAF81400574610F1FF4F0ED30122BE
:1041800010214046FDF79BF8002220214046FDF714
:1041900096F80098FCF75AFA29684863786910F095
:1041A000FF4F03D17C603C6028684463DBF8140057
:1041B000CA46DFF868815F4650450EDB01221021B8
:1041C0004046FDF77CF8002220214046FDF777F8B5
:1041D0000398FCF73BFA29688863DFF84491786913
:1041E00048450ED3002210214046FDF768F8012211
:1041F00020214046FDF763F80398FCF727FA296869
:104200008863786910F0FF4F03D17C603C602868B8
:104210008463DFF8FC80434F08F130084FF4804B93
:10422000D8F8140050450EDB002259463846FDF7F9
:1042300046F80122D1033846FDF741F80298FCF711
:1042400005FA2968C863D8F8140048450FD301223D
:1042500059463846FDF733F800224FF400413846FE
:10426000FDF72DF80298FCF7F1F92968C863D8F832
:104270001410404611F0FF4F04D14460C8F80040CC
:104280002868C46370694FF480584FF4005B504550
:104290000EDB012241463846FDF711F8002259464F
:1042A0003846FDF70CF80198FCF7D0F92968086446
:1042B000706948450ED3002241463846FCF7FFFF9F
:1042C000012259463846FCF7FAFF0198FCF7BEF97F
:1042D00029680864706910F0FF4F03D1746034607E
:1042E0002868046405B0BDE8F08F000020000020BD
:1042F000C976BE9F1A2F25404E621058393425408A
:1043000025068195434B2540B81E85EB5138254045
:1043100084020020000801402C040020001001400D
:1043200000008080000C01402DE9F04F4FF496789A
:10433000CBB04446424647496846FBF727FF46480C
:1043400022466FF05E0107683846FFF7F1FD04462C
:10435000EA4646E01AF80400554655283AD1434645
:10436000424601212046FFF7E3FD285CAA2831D10F
:104370009846424602212046FFF7DAFDAA462E461D
:10438000285C354D1A462D1D032128702046FFF765
:10439000CFFD305C6870B5F90060E9461A4605212A
:1043A0002046FFF7C5FD002383461D4607E059461A
:1043B0002846FFF7BDFD19F8000043406D1CB542CB
:1043C0004246F4DB04212046FFF7B2FD1AF8000054
:1043D000984208D042464FF0FF312046FFF7A8FD33
:1043E0000446BC42B6D1BC4203D101204BB0BDE86B
:1043F000F08FDFF868B0DFF860900023DBF8017021
:1044000009F1040955464246991D2046FFF790FDE3
:10441000295C09F803105B1C042BF4DBD9F80000BD
:10442000B84214DB07F57A77B84210DC96210B48C6
:10443000FBF7C5FE00235F4607E04246591D2046B4
:10444000FFF776FD285CF8545B1CB342F5DB0020D7
:10445000CCE70000AE060020AC000020DA07002008
:1044600010B5044696210B48FBF7A9FE0948962192
:104470009638FBF7A4FE96210748FBF7A0FE0749F4
:10448000204696228C600349BDE810409639FDF71E
:10449000A9BF0000AE060020DA070020AC00002013
:1044A00000000000000000000102030406070809E4
:1044B00000000000010203040102020304050607D4
:1044C00008090A0B0C0D0E0F10100000EC44000838
:1044D00000000020D0000000D4300008BC450008D7
:1044E000D0000020A00D0000E4300008FFAA52FF19
:1044F000AA67FFAA63FFAA64FFAA65FFAA66FFAACC
:104500006000000000000000000000000101010048
:104510000300000008000000080000001000000078
:104520001400000014000000230000000000000040
:10453000000000000000000000000000000000007B
:10454000000000000000000000000000000000006B
:10455000000000000000000000000000000000005B
:10456000000000000000000000000000000000004B
:10457000000000000000000000000000000000003B
:10458000000000000000000000000000000000002B
:104590000024F40000000000000000000000000003
:1045A00000000000010000001000000000000000FA
:0C45B000000000000000000000000000FF
:0400000508000131BD
:00000001FF
